{
  "contractName": "EventEmitter",
  "abi": [
    {
      "inputs": [],
      "payable": false,
      "stateMutability": "nonpayable",
      "type": "constructor"
    },
    {
      "anonymous": false,
      "inputs": [
        {
          "indexed": false,
          "internalType": "address",
          "name": "owner",
          "type": "address"
        }
      ],
      "name": "ConstructorDone",
      "type": "event"
    },
    {
      "anonymous": false,
      "inputs": [
        {
          "indexed": false,
          "internalType": "uint64",
          "name": "count",
          "type": "uint64"
        }
      ],
      "name": "Counter",
      "type": "event"
    },
    {
      "constant": true,
      "inputs": [],
      "name": "getCount",
      "outputs": [
        {
          "internalType": "uint256",
          "name": "count",
          "type": "uint256"
        }
      ],
      "payable": false,
      "stateMutability": "view",
      "type": "function"
    },
    {
      "constant": false,
      "inputs": [],
      "name": "increment",
      "outputs": [],
      "payable": false,
      "stateMutability": "nonpayable",
      "type": "function"
    }
  ],
  "bytecode": "0x608060405260008060006101000a81548167ffffffffffffffff021916908367ffffffffffffffff16021790555034801561003957600080fd5b507f64de961ea09eca5e8c5fcc7f8ad3db24f515ff63e6cd016c733d07f2a55e8d2e33604051808273ffffffffffffffffffffffffffffffffffffffff1673ffffffffffffffffffffffffffffffffffffffff16815260200191505060405180910390a1610167806100ac6000396000f3fe608060405234801561001057600080fd5b50600436106100365760003560e01c8063a87d942c1461003b578063d09de08a14610059575b600080fd5b610043610063565b6040518082815260200191505060405180910390f35b61006161008a565b005b60008060009054906101000a900467ffffffffffffffff1667ffffffffffffffff16905090565b60008081819054906101000a900467ffffffffffffffff168092919060010191906101000a81548167ffffffffffffffff021916908367ffffffffffffffff160217905550507f4bc6671fc24baf7643e552683a434d7073162faaa073ac4064801b4adc1d07756000809054906101000a900467ffffffffffffffff16604051808267ffffffffffffffff1667ffffffffffffffff16815260200191505060405180910390a156fea265627a7a72315820c7d5051a3615e6982c632faa4048799072e82c625ac6b07fbf1986f9fbad570b64736f6c634300050c0032",
  "source": "pragma solidity 0.5.12;\n\ncontract EventEmitter {\n\n    // ---- EVENTS -----------------------------------------------------------------------------------------------------\n    event ConstructorDone(address owner);\n    event Counter(uint64 count);\n\n    // ---- FIELDS -----------------------------------------------------------------------------------------------------\n    uint64 private _count = 0;\n\n    // ---- CONSTRUCTOR ------------------------------------------------------------------------------------------------\n    constructor() public {\n        emit ConstructorDone(msg.sender);\n    }\n\n    // ---- STATISTICS FUNCTIONS ---------------------------------------------------------------------------------------\n    function getCount() public view returns (uint count) {\n        return _count;\n    }\n\n    // ---- CORE FUNCTIONS ---------------------------------------------------------------------------------------------\n    function increment() public {\n        _count++;\n        emit Counter(_count);\n    }\n}\n",
  "sourcePath": "/Users/markus/Projects/IntelliJ/ethereum-event-scan/contracts/EventEmitter.sol",
  "compiler": {
    "name": "solc",
    "version": "0.5.12+commit.7709ece9.Emscripten.clang"
  },
  "schemaVersion": "3.0.18",
  "updatedAt": "2019-11-09T17:56:56.220Z",
  "networkType": "ethereum",
  "devdoc": {
    "methods": {}
  },
  "userdoc": {
    "methods": {}
  }
}