{
  "contractName": "EventEmitter",
  "abi": [
    {
      "inputs": [],
      "payable": false,
      "stateMutability": "nonpayable",
      "type": "constructor"
    },
    {
      "anonymous": false,
      "inputs": [
        {
          "indexed": false,
          "internalType": "address",
          "name": "owner",
          "type": "address"
        },
        {
          "indexed": false,
          "internalType": "string",
          "name": "message",
          "type": "string"
        }
      ],
      "name": "ConstructorDone",
      "type": "event"
    },
    {
      "anonymous": false,
      "inputs": [
        {
          "indexed": false,
          "internalType": "uint64",
          "name": "count",
          "type": "uint64"
        }
      ],
      "name": "Counter",
      "type": "event"
    },
    {
      "constant": true,
      "inputs": [],
      "name": "getCount",
      "outputs": [
        {
          "internalType": "uint256",
          "name": "count",
          "type": "uint256"
        }
      ],
      "payable": false,
      "stateMutability": "view",
      "type": "function"
    },
    {
      "constant": false,
      "inputs": [],
      "name": "increment",
      "outputs": [],
      "payable": false,
      "stateMutability": "nonpayable",
      "type": "function"
    }
  ],
  "bytecode": "0x608060405260008060006101000a81548167ffffffffffffffff021916908367ffffffffffffffff16021790555034801561003957600080fd5b507f25a458bc7e7463bcc3e163fea93620b03d9b7c8ce4c4947a379aefeac483204a336040518060a001604052806066815260200161029860669139604051808373ffffffffffffffffffffffffffffffffffffffff1673ffffffffffffffffffffffffffffffffffffffff16815260200180602001828103825283818151815260200191508051906020019080838360005b838110156100e75780820151818401526020810190506100cc565b50505050905090810190601f1680156101145780820380516001836020036101000a031916815260200191505b50935050505060405180910390a1610167806101316000396000f3fe608060405234801561001057600080fd5b50600436106100365760003560e01c8063a87d942c1461003b578063d09de08a14610059575b600080fd5b610043610063565b6040518082815260200191505060405180910390f35b61006161008a565b005b60008060009054906101000a900467ffffffffffffffff1667ffffffffffffffff16905090565b60008081819054906101000a900467ffffffffffffffff168092919060010191906101000a81548167ffffffffffffffff021916908367ffffffffffffffff160217905550507f4bc6671fc24baf7643e552683a434d7073162faaa073ac4064801b4adc1d07756000809054906101000a900467ffffffffffffffff16604051808267ffffffffffffffff1667ffffffffffffffff16815260200191505060405180910390a156fea265627a7a72315820d08af112c10838e832bdc93752711d3c2704542cfd9c23f82293e6f114a4681164736f6c634300050c0032307830313233343536373839303132333435363738393031323334353637383930313233343536373839303132333435363738393031323334353637383930313233343536373839303132333435363738393031323334353637383930313233343536373839",
  "source": "pragma solidity 0.5.12;\n\ncontract EventEmitter {\n\n    // ---- EVENTS -----------------------------------------------------------------------------------------------------\n    event ConstructorDone(address owner, string message);\n    event Counter(uint64 count);\n\n    // ---- FIELDS -----------------------------------------------------------------------------------------------------\n    uint64 private _count = 0;\n    string constant _message = '0x0123456789012345678901234567890123456789012345678901234567890123456789012345678901234567890123456789';\n\n    // ---- CONSTRUCTOR ------------------------------------------------------------------------------------------------\n    constructor() public {\n        emit ConstructorDone(msg.sender, _message);\n    }\n\n    // ---- STATISTICS FUNCTIONS ---------------------------------------------------------------------------------------\n    function getCount() public view returns (uint count) {\n        return _count;\n    }\n\n    // ---- CORE FUNCTIONS ---------------------------------------------------------------------------------------------\n    function increment() public {\n        _count++;\n        emit Counter(_count);\n    }\n}\n",
  "sourcePath": "/Users/markus/Projects/IntelliJ/ethereum-event-scan/contracts/EventEmitter.sol",
  "compiler": {
    "name": "solc",
    "version": "0.5.12+commit.7709ece9.Emscripten.clang"
  },
  "schemaVersion": "3.0.18",
  "updatedAt": "2019-11-12T19:13:17.512Z",
  "devdoc": {
    "methods": {}
  },
  "userdoc": {
    "methods": {}
  }
}